:0C0000000C943A000C9400000C940000DA
:10000C000C9400000C9400000C9400000C94000064
:10001C000C9400000C9400000C9400000C94000054
:10002C000C9400000C9400000C9400000C94000044
:10003C000C9400000C9400000C9400000C94000034
:10004C000C9400000C940000000000000000010063
:10005C002D4E414E00494E4600000600040054004F
:10006C0001002E025A000000F894EE27ECBBF1E0E0
:10007C00FBBFEBBFE5BF8DE0A2E0BB27ED938A95FC
:10008C00E9F780E094E0A0E6ED930197E9F7E6E666
:10009C00F0E085919591009761F0A591B59105904F
:1000AC001590BF01F00105900D920197E1F7FB014E
:1000BC00F0CFEFE5EDBFE4E0EEBFC0E6D1E00C948D
:1000CC0002011A9310E0151510F00C948B00A3E0AC
:1000DC001A9FF001E05AFE4FDF010E949104DF01EC
:1000EC000E94910431967E2F8F2F6081A3E01A9F7E
:1000FC00F001E05AFE4FDF010E949104E281E62BF1
:10010C00A72FB82FEC931F5FDECF19910895AA93F8
:10011C00E52DA3E0EA9FF001E05AFE4FA981BA81D8
:10012C00A083B183E52DA3E0EA9FF001EE59FE4FC9
:10013C00A881A083539423960895AA93E981A3E000
:10014C00EA9FF001EE59FE4FA881A08322960895F4
:10015C001A9310E0151510F00C940001A3E01A9FEF
:10016C00F001EE59FE4FE0814E1610F00C94DA00BF
:10017C001A9FF001E05AFE4FDF010E949104DF014B
:10018C000E94910432967E2F8F2F6081A3E01A9FDC
:10019C00F001E05AFE4FDF010E949104E281E62B50
:1001AC00A72FB82FEC931DC0A3E01A9FF001E05AC3
:1001BC00FE4FDF010E949104DF010E9491043296F0
:1001CC007E2F8F2F6081A3E01A9FF001E05AFE4F23
:1001DC00DF010E949104E281E095E623A72FB82F5E
:1001EC00EC934394E4E64E1610F40C94FE00442475
:1001FC001F5FB0CF199108952697E9E3E883E0E0FB
:10020C00E983E2E0EA83E9E3EB83E0E0EC83E1E01D
:10021C00ED837724E4E67E1610F00C943B01E2E3C8
:10022C007E1610F00C942801E72DF0E0EA59FE4FF1
:10023C00BF01A72DB0E0E4E0F0E00E947E04DB01FA
:10024C00EC9311C0E72DF0E0EA59FE4FBF01A72D4A
:10025C00B0E0E4E0F0E00E947E04A9E10E94B20468
:10026C00EA1BDB01EC937394D5CF7724E4E67E167E
:10027C0010F00C947201E72DF0E0E653FE4FFF9363
:10028C00EF93E72DF0E00E9466040E941D03ABED96
:10029C00BFE089EC90E40E94A703DF01CB01E0E012
:1002AC00F0E068EC72E40E94F503DF01CB010E94E0
:1002BC00F601A0E0B0E080E89FE30E945703A0E0C5
:1002CC00B0E080E291E40E94A703AF91BF910E943D
:1002DC00E402EC937394CACFFE013396FA93EA933B
:1002EC00A2E30E948D00FE01FA93EA93A2E30E941E
:1002FC008D000E946700A8EEB3E08A169B0611F0F1
:10030C000C94A501A4E66A1610F00C94A101E0E08F
:10031C00EA93E62DF0E0EA59FE4FA0810E94A3007B
:10032C00E1E0EA93E62DF0E0E653FE4FA0810E9457
:10033C00A300639401C066248824992403C0F401AB
:10034C0031964F010E94AE00D6CF2696FFCF0E9469
:10035C00A4047B816A81F981E88177FB770F67FDC3
:10036C007160972F9E5781F078F0983190F4AA27FE
:10037C00BB27882708948795B795A7959A95D1F7A9
:10038C00EA23FB23682305C0E8947727EE27FF2791
:10039C0066276F77769508F4606877F9A991B9911B
:1003AC0089919991EA17FB076807790797FB0895DC
:1003BC000E94A4040E949A040E94AD010E949F0412
:1003CC0021F40E94950424960895DEF70E9495046A
:1003DC00A0E0B0E080E89FE30E94500324960895CB
:1003EC000E94A40424971A9310E0AD81BE818F81E2
:1003FC009885E3E8F9EF62E27EE30E94A703ED83C0
:10040C00FE836F837887AD81BE818F8198850E9432
:10041C00DE01AD81BE818F8198850E94A9040E9466
:10042C005003ED83FE836F837887AD81BE818F810E
:10043C009885E0E0F0E060E07FE30E943A0409F088
:10044C0010F40C943802ED81FE816F817885A0E068
:10045C00B0E080E09FE30E945003ED83FE836F8346
:10046C00788711E0AD81BE818F819885E0E0F0E066
:10047C0060E87EE30E943A0409F010F40C945002F8
:10048C00E0E0F0E060E07FE30E945003ED83FE8348
:10049C006F837887103011F40C945E02ED81FE812D
:1004AC006F8178850E94B102ED83FE836F8378871C
:1004BC00ED81FE816F817885AD81BE818F819885BC
:1004CC000E94A703E983FA836B837C83A1EBB4ECD2
:1004DC0086E292E40E94A703DF01CB01EDE1F5EE89
:1004EC006DE272E40E94A9040E945003A981BA81B2
:1004FC008B819C810E94A703ACE4B3E584E091E47A
:10050C000E945703AD81BE818F8198850E94A703FD
:10051C007F936F93FF93EF93E981FA816B817C81D9
:10052C00A1E1BDEE8EED9FE30E945703A981BA8134
:10053C008B819C810E94A703AEE5BBE788EA9FE311
:10054C000E945703AF91BF918F919F910E94F50329
:10055C0018812996089530976040704009F07058C2
:10056C000895552342F4503811F4E0FF04C031963D
:10057C00691F791F6BF050E8572711F45F93CFC0B8
:10058C005F3F31F0660F000C57956795752F0895F6
:10059C005F9300200AF0CFC0C8C050E8192E152276
:1005AC00880F991F9527550F879550E8072E052220
:1005BC00660F771F7527550F67950895689401C0CE
:1005CC00E8945F93F2DF703818F07F3F08F4A7C00F
:1005DC0056E1571BAAF4519558300EF4593030F0AF
:1005EC00EFEFFFEF6FEF7FE777F91AC0772755230F
:1005FC00B9F0EE0FFF1F661F771F5A95D1F710C089
:10060C007727583028F0EF2FF62F672F5850F9CF57
:10061C00552331F076956795F795E7955A95D1F76F
:10062C0000200AF445D15F910895689401C0E894C4
:10063C00309760407040B1F0002426F0772312F41C
:10064C00009436D1172E7EE1112032F07A95EE0F00
:10065C00FF1F661F111CF9CFEF2FF62F612D5F9333
:10066C008ADF5F9108954F93AF01FD01DA01AB0171
:10067C00BC01CA01402D012C142E4F910895EA0F94
:10068C00FB1F681F0895E095F0956095EF5FFF4F95
:10069C006F4F08955F9381DF903871F150E8152604
:1006AC0004C05F937ADF903839F1703821F1572FFD
:1006BC00591B2BF112F4D7DFFACF583118F0AA27B7
:1006CC00BB278827583028F0AB2FB82F88275850D5
:1006DC00F9CF552329F08695B795A7955A95D9F753
:1006EC00502D512572F0CBDF38F46795F795E795CF
:1006FC00739513F420C0B7DF3EDF5F910895D8F7F0
:10070C00FBCFEA1BFB0B680B51F010F40094BBDF22
:10071C00662392F3EE0FFF1F661F7A95CBF7EE2739
:10072C00FF27662777275F910895EFEFFFEF6FE7BD
:10073C007FEF5F910895EFEFFFEF6FE77FE75F913A
:10074C0008955F932ADF703851F3903841F30124F8
:10075C000894791F23F41CF300203AF3ECCF0F928A
:10076C001F932F933F934F93112722279927689F0D
:10077C00A0018F9F302D410D591F6B9F300D411DD6
:10078C00591F8E9F27D0BF9F25D06A9F23D0BE9F15
:10079C001DD0AF9F1BD0AE9F110D291F391F491FB4
:1007AC00591FE32FF42F652F522F4F913F912F910B
:1007BC001F910F9066232AF0550FEE1FFF1F661F27
:1007CC0002C073954BF2CDDE5F910895100D211D83
:1007DC00391F02C0200D311D491F591F08955F9309
:1007EC00DCDE703821F411200AF49FCFA4CF9038AE
:1007FC0009F495CF01240894970B1BF4D4F3002033
:10080C00F3CF792F1F932F933F934F9311241127DD
:10081C00222733274427552790E2AE17BF078607B8
:10082C00410730F0AE1BBF0B860B410B089401C087
:10083C008894551F221F331F111CAA1FBB1F881F12
:10084C00441F9A9551F7F901612D4F913F912F91CA
:10085C001F91662332F0550FEE1FFF1F661F7A950E
:10086C0043F27FDE5F91089599239AF0772342F04B
:10087C00971748F029F4AE17BF07860720F031F020
:10088C00989488940895989408940895189488944A
:10089C0008957723C2F7971798F3A9F7EA17FB0780
:1008AC00680788F399F3ECCFF195E195F040089542
:1008BC00F09560957095E195FF4F6F4F7F4F0895C0
:1008CC006F2F660F660B762F08950024112490E18C
:1008DC00AA0FBB1F001C111C0E1A1F0A18F40E0EB7
:1008EC001F1E01C0A1609A9599F7FD01D0010895D2
:1008FC0004D0EBDF0EF4D8DF0895E894F7FF02C0C4
:10090C00D3DF6894B7FF06C0A095B095119600F898
:10091C00039400FA0895ED91FC9111970895E881E4
:10092C00F9816A817B810895A881B9818A819B8133
:10093C000895E883F9836A837B8308959A938A9355
:10094C00BA93AA930895182E862F612D192E972FDE
:10095C00712D1B2EBF2FF12D1A2EAE2FE12D0895C8
:00000001FF
